:100000000C942A000C943F000C943F000C943F0089
:100010000C943F000C943F000C943F000C943F0064
:100020000C943F000C943F000C943F000C943F0054
:100030000C943F000C943F000C943F000C943F0044
:100040000C943F000C943F000C943F000C943F0034
:100050000C943F0011241FBECFE5D8E0DEBFCDBF1A
:1000600011E0A0E6B0E0E6EEF0E302C005900D92EC
:10007000A03AB107D9F70E943F150C9471180C945F
:100080000000EF92FF920F931F937B018C0120E001
:1000900030E040E05FE40E941D0488238CF0C8013A
:1000A000B70120E030E040E05FE40E94B9010E9427
:1000B000DB049B01AC01205030404040504806C05A
:1000C000C801B7010E94DB049B01AC01B901CA0160
:1000D0001F910F91FF90EF900895A0E0B0E0E3E74B
:1000E000F0E00C943A18DC012B01FA019C9192305B
:1000F00008F439C1EB018881823008F433C19430AF
:1001000069F4843009F02FC111969C91119789816F
:10011000981709F428C1A6E7B0E025C1843009F496
:1001200021C18230A9F4923009F01DC19A01AD01BC
:1001300088E0EA010990AE01E90109929E0181502F
:10014000C1F7E201898111969C918923818308C1BD
:10015000923009F407C112962D903C901397EB0151
:100160008A819B811496AD90BD90CD90DC901797BD
:10017000EC80FD800E811F819101281B390BB90194
:1001800037FF04C066277727621B730B6032710547
:100190000CF061C0121613066CF537014801062EEB
:1001A00004C096948794779467940A94D2F721E0D8
:1001B00030E040E050E004C0220F331F441F551FC1
:1001C0006A95D2F721503040404050402E213F21C7
:1001D00040235123211531054105510521F021E02E
:1001E00030E040E050E079018A01E628F72808294C
:1001F00019293CC0232BD1F1260E371E35014601AB
:10020000062E04C096948794779467940A94D2F744
:1002100021E030E040E050E004C0220F331F441FD3
:10022000551F6A95D2F721503040404050402A2156
:100230003B214C215D21211531054105510521F05E
:1002400021E030E040E050E059016A01A628B728DB
:10025000C828D9280BC0821593052CF01C01AA24AC
:10026000BB24650103C0EE24FF24870111969C91F5
:10027000D20111968C91981709F445C0992339F051
:10028000A80197012A193B094C095D0906C0A6017E
:1002900095012E193F09400B510B57FD08C01182E3
:1002A0003382228224833583468357831DC081E0B5
:1002B00081833382228288279927DC01821B930B5A
:1002C000A40BB50B84839583A683B7830DC0220F3F
:1002D000331F441F551F24833583468357838281F0
:1002E000938101979383828324813581468157814D
:1002F000DA01C9010197A109B1098F5F9F4FAF4F83
:10030000BF4328F30BC0918333822282EA0CFB1C8B
:100310000C1D1D1DE482F5820683178383E0808314
:10032000248135814681578157FF1AC0C901AA2708
:1003300097FDA095BA2F81709070A070B0705695FF
:10034000479537952795822B932BA42BB52B848328
:100350009583A683B7838281938101969383828359
:10036000DF0101C0D201CD01CDB7DEB7E2E10C94CF
:100370005618A0E2B0E0EFEBF1E00C944618698368
:100380007A838B839C832D833E834F835887E9E058
:10039000EE2EF12CEC0EFD1ECE010196B7010E944F
:1003A000CC068E010F5E1F4FCE010596B8010E944C
:1003B000CC068A8991E089278A8BC701B801AE01F2
:1003C000475E5F4F0E946D000E94F705A096E6E031
:1003D0000C946218A0E2B0E0E0EFF1E00C94461853
:1003E00069837A838B839C832D833E834F835887D5
:1003F000F9E0EF2EF12CEC0EFD1ECE010196B701B7
:100400000E94CC068E010F5E1F4FCE010596B801EB
:100410000E94CC06C701B801AE01475E5F4F0E9443
:100420006D000E94F705A096E6E00C946218A0E229
:10043000B0E0EDE1F2E00C943A1869837A838B83A3
:100440009C832D833E834F835887CE010196BE0146
:10045000675F7F4F0E94CC06CE010596BE016F5E9E
:100460007F4F0E94CC069985923088F0898982302E
:10047000C8F0943019F4823051F404C0843029F467
:10048000923081F486E790E0C6C0923049F420E0D3
:100490009A858A89981321E02A87CE010996BBC0E4
:1004A000823049F420E09A858A89981321E02A8BCA
:1004B000CE014196B0C02D843E844F8458886D880B
:1004C0007E888F88988CEE24FF248701AA24BB2481
:1004D000650140E050E060E070E0E0E0F0E0C10184
:1004E00081709070892BE9F0E60CF71C081D191D2E
:1004F0009A01AB012A0D3B1D4C1D5D1D80E090E073
:10050000A0E0B0E0E614F7040805190520F481E046
:1005100090E0A0E0B0E0BA01A901480F591F6A1F9E
:100520007B1FAA0CBB1CCC1CDD1C97FE08C081E005
:1005300090E0A0E0B0E0A82AB92ACA2ADB2A3196C6
:10054000E032F10549F0660C771C881C991C569422
:10055000479437942794C3CFFA85EA892B893C893D
:100560008B859C85280F391F2E5F3F4F17C0CA010E
:1005700081709070892B61F016950795F794E79438
:1005800080E090E0A0E0B0E8E82AF92A0A2B1B2BD3
:1005900076956795579547952F5F3F4F77FDE7CF46
:1005A0000CC0440F551F661F771F17FD4160EE0CEE
:1005B000FF1C001F111F21503040403090E05907B0
:1005C00090E0690790E4790760F32B8F3C8FDB01A3
:1005D000CA018F779070A070B07080349105A1052A
:1005E000B10561F447FD0AC0E114F10401051105EC
:1005F00029F0405C5F4F6F4F7F4F40781A8EFE1797
:1006000011F081E08A8F4D8F5E8F6F8F78A383E02A
:10061000898FCE0149960E94F705A096E2E10C94DD
:100620005618A8E1B0E0E7E1F3E00C9442186983C2
:100630007A838B839C832D833E834F835887B9E0D5
:10064000EB2EF12CEC0EFD1ECE010196B7010E949F
:10065000CC068E010F5E1F4FCE010596B8010E9499
:10066000CC062985223008F47EC03989323010F456
:10067000B8017CC08A859A8989278A87243011F03D
:10068000223031F4231709F06EC066E770E06EC0C7
:10069000343039F41D861E861F86188A1C861B86F8
:1006A00004C0323021F484E08987B7015FC02B8514
:1006B0003C858B899C89281B390B3C872B87ED84D3
:1006C000FE840F851889AD88BE88CF88D88CEA143F
:1006D000FB040C051D0540F4EE0CFF1C001F111F50
:1006E000215030403C872B8720E030E040E050E054
:1006F00080E090E0A0E0B0E460E070E0EA14FB0489
:100700000C051D0540F0282B392B4A2B5B2BEA18D2
:10071000FB080C091D09B695A79597958795EE0CD2
:10072000FF1C001F111F6F5F7F4F6F31710531F785
:10073000DA01C9018F779070A070B0708034910594
:10074000A105B10561F427FD0AC0E114F10401051A
:10075000110529F0205C3F4F4F4F5F4F20782D87C8
:100760003E874F87588BBE01675F7F4FCB010E944A
:10077000F7056896EAE00C945E18A8E1B0E0E3ECB7
:10078000F3E00C94461869837A838B839C832D83D2
:100790003E834F83588789E0E82EF12CEC0EFD1E36
:1007A000CE010196B7010E94CC068E010F5E1F4F4D
:1007B000CE010596B8010E94CC068985823040F0B2
:1007C0008989823028F0C701B8010E94440701C01E
:1007D00081E06896E6E00C946218A8E1B0E0E3EFEF
:1007E000F3E00C94461869837A838B839C832D8372
:1007F0003E834F83588789E0E82EF12CEC0EFD1ED6
:10080000CE010196B7010E94CC068E010F5E1F4FEC
:10081000CE010596B8010E94CC068985823040F051
:100820008989823028F0C701B8010E94440701C0BD
:100830008FEF6896E6E00C946218A8E1B0E0E3E27E
:10084000F4E00C94461869837A838B839C832D8310
:100850003E834F83588789E0E82EF12CEC0EFD1E75
:10086000CE010196B7010E94CC068E010F5E1F4F8C
:10087000CE010596B8010E94CC068985823040F0F1
:100880008989823028F0C701B8010E94440701C05D
:100890008FEF6896E6E00C946218A8E1B0E0E3E51B
:1008A000F4E00C94461869837A838B839C832D83B0
:1008B0003E834F83588789E0E82EF12CEC0EFD1E15
:1008C000CE010196B7010E94CC068E010F5E1F4F2C
:1008D000CE010596B8010E94CC068985823040F091
:1008E0008989823028F0C701B8010E94440701C0FD
:1008F00081E06896E6E00C946218A8E0B0E0E3E8D6
:10090000F4E00C9443189B01AC0183E08983DA0185
:10091000C9018827B7FD83959927AA27BB27B82E39
:10092000211531054105510519F482E089833AC04A
:100930008823A9F0203080E0380780E0480780E86D
:10094000580729F460E070E080E09FEC30C0EE24AE
:10095000FF248701E21AF30A040B150B02C0790188
:100960008A018EE1C82ED12CDC82CB82ED82FE8200
:100970000F831887C801B7010E94A80501971816B0
:10098000190684F4082E04C0EE0CFF1C001F111F72
:100990000A94D2F7ED82FE820F831887C81AD90A0B
:1009A000DC82CB82BA82CE0101960E94F70528969E
:1009B000E9E00C945F18ACE0B0E0E1EEF4E00C94F8
:1009C0004A1869837A838B839C83CE010196BE018A
:1009D0006B5F7F4F0E94CC068D81823061F1823047
:1009E00050F1843021F48E81882351F12EC02F8163
:1009F000388537FD20C06E812F3131051CF066230C
:100A0000F9F023C08EE190E0821B930B29853A8593
:100A10004B855C8504C056954795379527958A95F3
:100A2000D2F76623B1F050954095309521953F4F10
:100A30004F4F5F4F0EC020E030E040E050E009C073
:100A40002FEF3FEF4FEF5FE704C020E030E040E0E2
:100A500050E8B901CA012C96E2E00C946618A8E0AF
:100A6000B0E0E5E3F5E00C9442187B018C016115E0
:100A700071058105910519F482E0898360C083E0E6
:100A800089838EE1C82ED12CDC82CB82ED82FE825E
:100A90000F831887C801B7010E94A805FC01319790
:100AA000F7FF3BC0222733272E1B3F0B570168015E
:100AB000022E04C0D694C794B794A7940A94D2F790
:100AC00040E050E060E070E081E090E0A0E0B0E065
:100AD00004C0880F991FAA1FBB1F2A95D2F7019740
:100AE000A109B1098E219F21A023B1230097A1055F
:100AF000B10521F041E050E060E070E04A295B2957
:100B00006C297D294D835E836F8378878EE190E029
:100B10008E1B9F0B9C838B8312C0309781F00E2E0F
:100B200004C0EE0CFF1C001F111F0A94D2F7ED82C7
:100B3000FE820F831887CE1ADF0ADC82CB821A82EC
:100B4000CE0101960E94F7052896EAE00C945E1803
:100B5000EF92FF920F931F937B018C0180E0E816C8
:100B600080E0F80681E0080780E0180788F48FEF3E
:100B7000E816F1040105110531F028F088E090E055
:100B8000A0E0B0E017C080E090E0A0E0B0E012C0CC
:100B900080E0E81680E0F80680E0080781E01807AA
:100BA00028F088E190E0A0E0B0E004C080E190E0AF
:100BB000A0E0B0E020E230E040E050E0281B390B3C
:100BC0004A0B5B0B04C016950795F794E7948A953A
:100BD000D2F7F701E258FF4F8081281B3109410904
:100BE0005109C9011F910F91FF90EF900895DF9275
:100BF000EF92FF920F931F93FC01E480F580068132
:100C00001781D1808081823048F480E090E0A0E1BB
:100C1000B0E0E82AF92A0A2B1B2BA5C0843009F47E
:100C20009FC0823021F4EE24FF24870105C0E11427
:100C3000F1040105110519F4E0E0F0E096C06281CD
:100C400073819FEF623879070CF05BC022E83FEFB9
:100C5000261B370B2A3131052CF020E030E040E034
:100C600050E02AC0B801A701022E04C0769567950E
:100C7000579547950A94D2F781E090E0A0E0B0E064
:100C800004C0880F991FAA1FBB1F2A95D2F701978E
:100C9000A109B1098E219F21A023B1230097A105AD
:100CA000B10521F081E090E0A0E0B0E09A01AB0155
:100CB000282B392B4A2B5B2BDA01C9018F779070D7
:100CC000A070B07080349105A105B10539F427FFFB
:100CD00009C0205C3F4F4F4F5F4F04C0215C3F4F26
:100CE0004F4F5F4FE0E0F0E02030A0E03A07A0E097
:100CF0004A07A0E45A0710F0E1E0F0E079018A0128
:100D000027C06038710564F5FB01E158FF4FD80139
:100D1000C7018F779070A070B07080349105A105E5
:100D2000B10539F4E7FE0DC080E490E0A0E0B0E04A
:100D300004C08FE390E0A0E0B0E0E80EF91E0A1FC7
:100D40001B1F17FF05C016950795F794E79431967A
:100D500087E016950795F794E7948A95D1F705C033
:100D6000EE24FF248701EFEFF0E06E2F67956627F2
:100D70006795902F9F77D794DD24D7948E2F8695F3
:100D8000492F462B582F5D29B701CA011F910F919A
:100D9000FF90EF90DF900895FC01DB0140815181CD
:100DA0002281622F6F7770E0221F2227221F9381FA
:100DB000892F880F822B282F30E0991F9927991FA0
:100DC00011969C93119721153105A9F541155105EF
:100DD0006105710511F482E037C082E89FEF139638
:100DE0009C938E9312979A01AB0167E0220F331FF9
:100DF000441F551F6A95D1F783E08C930DC0220FD5
:100E0000331F441F551F12968D919C911397019784
:100E100013969C938E931297203080E0380780E0E1
:100E2000480780E4580758F314962D933D934D934B
:100E30005C93179708952F3F310579F441155105BB
:100E40006105710519F484E08C93089564FF03C073
:100E500081E08C9312C01C9210C02F573040139623
:100E60003C932E93129783E08C9387E0440F551F99
:100E7000661F771F8A95D1F7706414964D935D9322
:100E80006D937C93179708951F93DC01FB019C9150
:100E9000923008F447C08081823008F443C0943017
:100EA00051F411961C91843099F58181682F70E07E
:100EB000611B71093FC0843021F0923031F48230DF
:100EC000B9F18181882389F12DC011961C91119768
:100ED0008230F1F081811817D9F412962D913C914E
:100EE0001397828193818217930794F0281739070B
:100EF000BCF014968D919D910D90BC91A02D2481F4
:100F0000358146815781281739074A075B0718F44E
:100F1000112341F00AC082179307A407B50740F4D4
:100F2000112319F061E070E005C06FEF7FEF02C0A0
:100F300060E070E0CB011F910895EF92FF920F9354
:100F40001F93DF93CF93CDB7DEB72D970FB6F894ED
:100F5000DEBF0FBECDBF6A877B878C879D8780E011
:100F600090E0A0E8BFE38E839F83A887B98780E0E5
:100F700090E0A0E8BFE38A839B83AC83BD8381E0DC
:100F8000898338C06E817F81888599852A853B85D4
:100F90004C855D850E941702DC01CB017C018D012F
:100FA0008981882F90E0AA2797FDA095BA2FBC01D0
:100FB000CD010E947D049B01AC01C801B7010E94D4
:100FC0001103DC01CB018E839F83A887B9876A81D7
:100FD0007B818C819D812E813F81488559850E942E
:100FE000EA01DC01CB018A839B83AC83BD838981C9
:100FF0008F5F89838981843628F28A819B81AC81C5
:10100000BD81BC01CD012D960FB6F894DEBF0FBE99
:10101000CDBFCF91DF911F910F91FF90EF90089579
:10102000DF93CF93CDB7DEB765970FB6F894DEBFE9
:101030000FBECDBF6A8B7B8B8C8B9D8B80E090E04D
:10104000A0E0B0E08E879F87A88BB98B80E090E00E
:10105000A0E3B1E48A879B87AC87BD8780E090E0FE
:10106000A0E3B1E48E839F83A887B98780E090E0F6
:10107000A0E0B0E08A839B83AC83BD83198279C0F2
:101080008E859F85A889B989BC01CD010E949D07E5
:10109000DC01CB01BC01CD012A893B894C895D89EA
:1010A0000E94B901DC01CB018A839B83AC83BD83A1
:1010B0006A817B818C819D8120E030E040E050E0BE
:1010C0000E94BD03882309F458C06A817B818C810A
:1010D0009D8120E030E040E050E00E944D048823F4
:1010E0001CF58E859F85A889B9898E839F83A887E3
:1010F000B9876A857B858C859D852E813F81488552
:1011000059850E94EA01DC01CB01BC01CD0120E040
:1011100030E040E050E40E941103DC01CB018E87F7
:101120009F87A88BB98B22C08E859F85A889B98996
:101130008A879B87AC87BD876A857B858C859D85E3
:101140002E813F81488559850E94EA01DC01CB014F
:10115000BC01CD0120E030E040E050E40E941103EA
:10116000DC01CB018E879F87A88BB98B89818F5F2C
:1011700089838981843608F483CF8E859F85A889E9
:10118000B989BC01CD0165960FB6F894DEBF0FBEDC
:10119000CDBFCF91DF910895EF92FF920F931F93F0
:1011A000DF93CF93CDB7DEB761970FB6F894DEBF6C
:1011B0000FBECDBF6E877F87888B998B6E857F85AD
:1011C0008889998920E030E040EB51E40E941702C1
:1011D000DC01CB01BC01CD0120E030E84DE954E455
:1011E0000E941103DC01CB018A879B87AC87BD87F6
:1011F00080E090E0A0E8BFE38E839F83A887B98753
:1012000080E090E0A0E8BFE38A839B83AC83BD834A
:1012100081E0898353C08A819B81AC81BD81B058B4
:10122000BC01CD012A853B854C855D850E94170256
:10123000DC01CB01BC01CD012A853B854C855D8558
:101240000E941702DC01CB017C018D018981882F6E
:1012500090E09C012F5F3F4F8981882F90E0AC0187
:10126000249FC001259F900D349F900D1124AA2723
:1012700097FDA095BA2FBC01CD010E947D049B0172
:10128000AC01C801B7010E941103DC01CB018A83C4
:101290009B83AC83BD836E817F81888599852A81FC
:1012A0003B814C815D810E94EA01DC01CB018E8390
:1012B0009F83A887B98789818E5F89838981893CCB
:1012C00008F4A9CF8E819F81A885B985BC01CD0185
:1012D00061960FB6F894DEBF0FBECDBFCF91DF9100
:1012E0001F910F91FF90EF900895EF92FF920F934F
:1012F0001F93DF93CF93CDB7DEB761970FB6F89406
:10130000DEBF0FBECDBF6E877F87888B998B6E85C2
:101310007F858889998920E030E040EB51E40E9484
:101320001702DC01CB01BC01CD0120E030E84DE922
:1013300054E40E941103DC01CB018A879B87AC87B0
:10134000BD878A859B85AC85BD858E839F83A88755
:10135000B9878A859B85AC85BD858A839B83AC8351
:10136000BD8381E0898354C08E819F81A885B98522
:10137000B058BC01CD012A853B854C855D850E9416
:101380001702DC01CB01BC01CD012A853B854C85D0
:101390005D850E941702DC01CB017C018D018981F2
:1013A000882F90E09C012F5F3F4F8981882F90E02C
:1013B0000296AC01249FC001259F900D349F900D93
:1013C0001124AA2797FDA095BA2FBC01CD010E9438
:1013D0007D049B01AC01C801B7010E941103DC012F
:1013E000CB018E839F83A887B9876A817B818C819B
:1013F0009D812E813F81488559850E94EA01DC014B
:10140000CB018A839B83AC83BD8389818E5F898373
:101410008981893C08F4A8CF8A819B81AC81BD81F8
:10142000BC01CD0161960FB6F894DEBF0FBECDBFF3
:10143000CF91DF911F910F91FF90EF900895EF9260
:10144000FF920F931F93DF93CF9300D000D0CDB7BF
:10145000DEB769837A838B839C8389819A81AB8190
:10146000BC81BC01CD010E9475097B018C01898181
:101470009A81AB81BC81BC01CD010E94CC089B014B
:10148000AC01C801B7010E941103DC01CB01BC0112
:10149000CD010F900F900F900F90CF91DF911F9182
:1014A0000F91FF90EF900895DF93CF93CDB7DEB704
:1014B00027970FB6F894DEBF0FBECDBF89836A832E
:1014C0004B838B81813009F06FC08981282F30E0F8
:1014D0003F832E838E819F818130910549F12E813A
:1014E0003F81223031052CF48E819F81009761F07D
:1014F000D2C02E813F812230310571F18E819F81D2
:1015000083309105E9F1C7C0AAE3B0E0EAE3F0E077
:101510008081482F8A81282F30E081E090E0022EE0
:1015200002C0880F991F0A94E2F7842B8C93B3C0F2
:10153000A7E3B0E0E7E3F0E08081482F8A81282F1D
:1015400030E081E090E0022E02C0880F991F0A94DB
:10155000E2F7842B8C939FC0A4E3B0E0E4E3F0E0D7
:101560008081482F8A81282F30E081E090E0022E90
:1015700002C0880F991F0A94E2F7842B8C938BC0CA
:10158000A1E3B0E0E1E3F0E08081482F8A81282FD9
:1015900030E081E090E0022E02C0880F991F0A948B
:1015A000E2F7842B8C9377C08B81882309F073C07A
:1015B0008981282F30E03D832C838C819D8181306F
:1015C000910559F12C813D81223031052CF48C811B
:1015D0009D81009769F05FC02C813D8122303105EB
:1015E00089F18C819D818330910509F440C053C0FD
:1015F000AAE3B0E0EAE3F0E08081482F8A81282F57
:1016000030E081E090E0022E02C0880F991F0A941A
:10161000E2F7809584238C933EC0A7E3B0E0E7E334
:10162000F0E08081482F8A81282F30E081E090E02F
:10163000022E02C0880F991F0A94E2F78095842336
:101640008C9329C0A4E3B0E0E4E3F0E08081482F6C
:101650008A81282F30E081E090E0022E02C0880FBE
:10166000991F0A94E2F7809584238C9314C0A1E318
:10167000B0E0E1E3F0E08081482F8A81282F30E05C
:1016800081E090E0022E02C0880F991F0A94E2F7D1
:10169000809584238C9327960FB6F894DEBF0FBEF7
:1016A000CDBFCF91DF910895DF93CF93CDB7DEB754
:1016B00027970FB6F894DEBF0FBECDBF89836A832C
:1016C0004B838B81813009F06FC08981282F30E0F6
:1016D0003F832E838E819F818130910549F12E8138
:1016E0003F81223031052CF48E819F81009761F07B
:1016F000D2C02E813F812230310571F18E819F81D0
:1017000083309105E9F1C7C0ABE3B0E0EBE3F0E073
:101710008081482F8A81282F30E081E090E0022EDE
:1017200002C0880F991F0A94E2F7842B8C93B3C0F0
:10173000A8E3B0E0E8E3F0E08081482F8A81282F19
:1017400030E081E090E0022E02C0880F991F0A94D9
:10175000E2F7842B8C939FC0A5E3B0E0E5E3F0E0D3
:101760008081482F8A81282F30E081E090E0022E8E
:1017700002C0880F991F0A94E2F7842B8C938BC0C8
:10178000A2E3B0E0E2E3F0E08081482F8A81282FD5
:1017900030E081E090E0022E02C0880F991F0A9489
:1017A000E2F7842B8C9377C08B81882309F073C078
:1017B0008981282F30E03D832C838C819D8181306D
:1017C000910559F12C813D81223031052CF48C8119
:1017D0009D81009769F05FC02C813D8122303105E9
:1017E00089F18C819D818330910509F440C053C0FB
:1017F000ABE3B0E0EBE3F0E08081482F8A81282F53
:1018000030E081E090E0022E02C0880F991F0A9418
:10181000E2F7809584238C933EC0A8E3B0E0E8E330
:10182000F0E08081482F8A81282F30E081E090E02D
:10183000022E02C0880F991F0A94E2F78095842334
:101840008C9329C0A5E3B0E0E5E3F0E08081482F68
:101850008A81282F30E081E090E0022E02C0880FBC
:10186000991F0A94E2F7809584238C9314C0A2E315
:10187000B0E0E2E3F0E08081482F8A81282F30E059
:1018800081E090E0022E02C0880F991F0A94E2F7CF
:10189000809584238C9327960FB6F894DEBF0FBEF5
:1018A000CDBFCF91DF910895DF93CF9300D000D0CB
:1018B000CDB7DEB789836A838981282F30E03C83E6
:1018C0002B838B819C8181309105D1F02B813C81D0
:1018D000223031052CF48B819C81009761F01EC071
:1018E0002B813C812230310581F08B819C818330BA
:1018F000910581F013C0EAE3F0E08A8180830EC095
:10190000E7E3F0E08A81808309C0E4E3F0E08A81C4
:10191000808304C0E1E3F0E08A8180830F900F9020
:101920000F900F90CF91DF910895DF93CF9300D068
:1019300000D0CDB7DEB789836A838981282F30E054
:101940003C832B838B819C8181309105D1F02B814D
:101950003C81223031052CF48B819C81009761F011
:101960001EC02B813C812230310581F08B819C810E
:101970008330910581F013C0EBE3F0E08A8180832E
:101980000EC0E8E3F0E08A81808309C0E5E3F0E07F
:101990008A81808304C0E2E3F0E08A8180830F9033
:1019A0000F900F900F90CF91DF910895DF93CF9319
:1019B00000D000D00F92CDB7DEB78A836B838A81C7
:1019C000282F30E03D832C834C815D8141305105CF
:1019D00041F18C819D818230910534F42C813D81CF
:1019E0002115310561F052C04C815D8142305105B5
:1019F00051F18C819D8183309105B9F147C0E9E3B4
:101A0000F0E08081282F30E08B81882F90E0A901C1
:101A100002C0559547958A95E2F7CA01817089837E
:101A200035C0E6E3F0E08081282F30E08B81882FFD
:101A300090E0A90102C0559547958A95E2F7CA0141
:101A40008170898323C0E3E3F0E08081282F30E0B8
:101A50008B81882F90E0A90102C0559547958A9502
:101A6000E2F7CA018170898311C0E0E3F0E0808170
:101A7000282F30E08B81882F90E0A90102C0559576
:101A800047958A95E2F7CA018170898389810F9011
:101A90000F900F900F900F90CF91DF910895DF93EB
:101AA000CF9300D000D0CDB7DEB789836A83898118
:101AB000282F30E03C832B838B819C8181309105E2
:101AC00049F12B813C81223031052CF48B819C81A2
:101AD000009761F05AC02B813C812230310571F1B1
:101AE0008B819C8183309105E9F14FC0ABE3B0E07D
:101AF000EBE3F0E08081482F8A81282F30E081E0FD
:101B000090E0022E02C0880F991F0A94E2F7842702
:101B10008C933BC0A8E3B0E0E8E3F0E08081482F7D
:101B20008A81282F30E081E090E0022E02C0880FE9
:101B3000991F0A94E2F784278C9327C0A5E3B0E0AD
:101B4000E5E3F0E08081482F8A81282F30E081E0B2
:101B500090E0022E02C0880F991F0A94E2F78427B2
:101B60008C9313C0A2E3B0E0E2E3F0E08081482F61
:101B70008A81282F30E081E090E0022E02C0880F99
:101B8000991F0A94E2F784278C930F900F900F907F
:101B90000F90CF91DF910895DF93CF93CDB7DEB74C
:101BA00082E06FE00E94540C82E06FEF0E94950C7F
:101BB00083E060E040E00E94540A83E061E040E09E
:101BC0000E94540A83E06FEF0E94950CCF91DF9141
:101BD0000895DF93CF93CDB7DEB7A1970FB6F894F2
:101BE000DEBF0FBECDBF8FEF8E8F1D8E19A27DC1C0
:101BF00089A1882F90E0FC01EA56FE4F908182E097
:101C0000692F40E00E94540B18A259C188A184306A
:101C100008F0A9C088A1882F90E0FC01E656FE4F8D
:101C2000908182E0692F0E94D60C8F8F8F8D882340
:101C300009F042C180E090E0A0EAB1E4898F9A8F78
:101C4000AB8FBC8F698D7A8D8B8D9C8D20E030E0C1
:101C50004AEF54E40E941702DC01CB018D8B9E8B6E
:101C6000AF8BB88F6D897E898F89988D20E030E0A9
:101C700040E85FE30E944D0488232CF481E090E06B
:101C80009C8B8B8B3FC06D897E898F89988D20E0DE
:101C90003FEF4FE757E40E94ED0318164CF5698DAE
:101CA0007A8D8B8D9C8D20E030E040E251E40E94E3
:101CB0001702DC01CB01BC01CD010E944100DC0117
:101CC000CB019C8B8B8B0FC088EC90E09A8B898B1F
:101CD00089899A890197F1F79A8B898B8B899C89DD
:101CE00001979C8B8B8B8B899C89009769F721C00E
:101CF0006D897E898F89988D0E944100DC01CB011E
:101D00009C8B8B8B8B899C89988B8F878F859889EF
:101D10000197F1F7988B8F870CC088A1882F90E0EE
:101D2000FC01E656FE4F908182E0692F0E94D60C9E
:101D30008F8F8F8D882389F389A1282F30E088A188
:101D4000482F50E0C901880F991F820F931F880FF9
:101D5000991F840F951FFC01E258FE4F80818E8FE2
:101D600081E08D8FB0C088A1882F90E0FC01E656FD
:101D7000FE4F908183E0692F0E94D60C8F8F8F8D4C
:101D8000882309F099C080E090E0A0EAB1E48B8755
:101D90009C87AD87BE876B857C858D859E8520E081
:101DA00030E04AEF54E40E941702DC01CB018F833C
:101DB0009887A987BA876F81788589859A8520E079
:101DC00030E040E85FE30E944D0488232CF481E07A
:101DD00090E09E838D833FC06F81788589859A8549
:101DE00020E03FEF4FE757E40E94ED0318164CF553
:101DF0006B857C858D859E8520E030E040E251E456
:101E00000E941702DC01CB01BC01CD010E94410000
:101E1000DC01CB019E838D830FC088EC90E09C8316
:101E20008B838B819C810197F1F79C838B838D81C0
:101E30009E8101979E838D838D819E81009769F796
:101E400021C06F81788589859A850E944100DC01D7
:101E5000CB019E838D838D819E819A838983898125
:101E60009A810197F1F79A8389830CC088A1882F02
:101E700090E0FC01E656FE4F908183E0692F0E94BE
:101E8000D60C8F8F8F8D882389F389A1282F30E07E
:101E900088A1482F50E0C901880F991F820F931F16
:101EA000880F991F840F951FFC01E258FE4F808117
:101EB0008E8F81E08D8F07C088A18F5F88A388A156
:101EC000863008F4A3CE89A1882F90E0FC01EA5661
:101ED000FE4F908182E0692F41E00E94540B8D8D6E
:101EE000813039F089A18F5F89A389A1843008F4FA
:101EF0007FCE8E8DA1960FB6F894DEBF0FBECDBFFC
:101F0000CF91DF910895DF93CF93CDB7DEB72F97B1
:101F10000FB6F894DEBF0FBECDBF8F8781E065E0BE
:101F200040E00E94540B81E066E040E00E94540BC8
:101F300080E06F850E94950C81E067E041E00E949F
:101F4000540B80E090E0A0E8BFE38B879C87AD87CF
:101F5000BE876B857C858D859E8520E030E04AEFCD
:101F600054E40E941702DC01CB018F839887A98774
:101F7000BA876F81788589859A8520E030E040E8CE
:101F80005FE30E944D0488232CF481E090E09E835F
:101F90008D833FC06F81788589859A8520E03FEFEA
:101FA0004FE757E40E94ED0318164CF56B857C85CE
:101FB0008D859E8520E030E040E251E40E941702CA
:101FC000DC01CB01BC01CD010E944100DC01CB0151
:101FD0009E838D830FC088EC90E09C838B838B81E4
:101FE0009C810197F1F79C838B838D819E81019762
:101FF0009E838D838D819E81009769F714C06F81C8
:10200000788589859A850E944100DC01CB019E83F9
:102010008D838D819E819A83898389819A8101979D
:10202000F1F79A83898381E067E040E00E94540BD6
:102030002F960FB6F894DEBF0FBECDBFCF91DF91C4
:102040000895DF93CF93CDB7DEB729970FB6F894F5
:10205000DEBF0FBECDBF998788871F821E821D827B
:102060001C82888599859B838A83198228C08885EC
:1020700099852AE030E0B9010E9426189F838E835B
:102080008C819D819C01220F331FC901880F991FEC
:10209000880F991F280F391F8E819F81820F931FF0
:1020A0009D838C83888599852AE030E0B9010E9460
:1020B0002618CB019987888789818F5F89838885D6
:1020C00099850097A1F617C08C819D812AE030E0A8
:1020D000B9010E942618805D0E94A3118C819D8108
:1020E0002AE030E0B9010E942618CB019D838C8341
:1020F0008981815089838981882331F78A819B81F5
:10210000009719F480E30E94A31129960FB6F89462
:10211000DEBF0FBECDBFCF91DF910895DF93CF9388
:10212000CDB7DEB762970FB6F894DEBF0FBECDBF56
:102130006F87788B898B9A8B1E861D861C861B86E3
:102140006F85788989899A890E944100DC01CB01D9
:102150009A87898789859A85CC01A0E0B0E0BC0187
:10216000CD010E942F059B01AC016F85788989897B
:102170009A890E94B901DC01CB018D839E83AF83D4
:10218000B8871C8283E08B836D817E818F819885E7
:1021900020E030E04AE754E40E941702DC01CB0162
:1021A000BC01CD010E944100DC01CB019A838983EF
:1021B0006F85788989899A8920E030E040E85FE37B
:1021C0000E944D04882364F580E30E94A31128C077
:1021D00089859A852AE030E0B9010E9426189E87F9
:1021E0008D878B859C859C01220F331FC901880F29
:1021F000991F880F991F280F391F8D859E85820F83
:10220000931F9C878B8789859A852AE030E0B901E6
:102210000E942618CB019A8789878C818F5F8C83D7
:1022200089859A850097A1F617C08B859C852AE041
:1022300030E0B9010E942618805D0E94A3118B85B1
:102240009C852AE030E0B9010E942618CB019C87CA
:102250008B878C8181508C838C81882331F78EE22F
:102260000E94A31189819A818436910520F480E32C
:102270000E94A31131C089819A818A30910560F54D
:1022800080E30E94A31128C089819A812AE030E06E
:10229000B9010E9426189E878D878B859C859C019D
:1022A000220F331FC901880F991F880F991F280F0C
:1022B000391F8D859E85820F931F9C878B8789810F
:1022C0009A812AE030E0B9010E942618CB019A8356
:1022D00089838C818F5F8C8389819A810097A1F695
:1022E00017C08B859C852AE030E0B9010E94261832
:1022F000805D0E94A3118B859C852AE030E0B901A6
:102300000E942618CB019C878B878C8181508C83FF
:102310008C81882331F76D817E818F81988520E0C3
:1023200030E040E050E00E94BD03882319F480E3D0
:102330000E94A31162960FB6F894DEBF0FBECDBF08
:10234000CF91DF910895DF93CF93CDB7DEB72F976D
:102350000FB6F894DEBF0FBECDBF8F8781E065E07A
:1023600041E00E94540B81E066E040E00E94540B83
:1023700080E06F850E94950C81E067E041E00E945B
:10238000540B80E090E0A0E8BFE38B879C87AD878B
:10239000BE876B857C858D859E8520E030E04AEF89
:1023A00054E40E941702DC01CB018F839887A98730
:1023B000BA876F81788589859A8520E030E040E88A
:1023C0005FE30E944D0488232CF481E090E09E831B
:1023D0008D833FC06F81788589859A8520E03FEFA6
:1023E0004FE757E40E94ED0318164CF56B857C858A
:1023F0008D859E8520E030E040E251E40E94170286
:10240000DC01CB01BC01CD010E944100DC01CB010C
:102410009E838D830FC088EC90E09C838B838B819F
:102420009C810197F1F79C838B838D819E8101971D
:102430009E838D838D819E81009769F714C06F8183
:10244000788589859A850E944100DC01CB019E83B5
:102450008D838D819E819A83898389819A81019759
:10246000F1F79A83898381E067E040E00E94540B92
:102470002F960FB6F894DEBF0FBECDBFCF91DF9180
:102480000895DF93CF93CDB7DEB7E8970FB6F894F2
:10249000DEBF0FBECDBF80E061E00E94540C81E042
:1024A00065E041E00E94540A81E066E041E00E945C
:1024B000540A81E067E041E00E94540A80E090E025
:1024C000ACE0B2E48DAB9EABAFABB8AF6DA97EA96B
:1024D0008FA998AD20E030E04AEF54E40E94170243
:1024E000DC01CB0189AB9AABABABBCAB69A97AA9D8
:1024F0008BA99CA920E030E040E85FE30E944D04F6
:1025000088232CF481E090E098AB8FA73FC069A9A5
:102510007AA98BA99CA920E03FEF4FE757E40E94DE
:10252000ED0318164CF56DA97EA98FA998AD20E092
:1025300030E040E251E40E941702DC01CB01BC0113
:10254000CD010E944100DC01CB0198AB8FA70FC0E9
:1025500088EC90E09EA78DA78DA59EA50197F1F729
:102560009EA78DA78FA598A9019798AB8FA78FA538
:1025700098A9009769F714C069A97AA98BA99CA9A1
:102580000E944100DC01CB0198AB8FA78FA598A9D1
:102590009CA78BA78BA59CA50197F1F79CA78BA760
:1025A00088E30E94830F80E090E0A0E8BFE38FA360
:1025B00098A7A9A7BAA76FA178A589A59AA520E091
:1025C00030E04AEF54E40E941702DC01CB018BA3F8
:1025D0009CA3ADA3BEA36BA17CA18DA19EA120E075
:1025E00030E040E85FE30E944D0488232CF481E052
:1025F00090E09AA389A33FC06BA17CA18DA19EA16D
:1026000020E03FEF4FE757E40E94ED0318164CF52A
:102610006FA178A589A59AA520E030E040E251E4B9
:102620000E941702DC01CB01BC01CD010E944100D8
:10263000DC01CB019AA389A30FC088EC90E098A39A
:102640008F8F8F8D98A10197F1F798A38F8F89A114
:102650009AA101979AA389A389A19AA1009769F7E2
:1026600014C06BA17CA18DA19EA10E944100DC0140
:10267000CB019AA389A389A19AA19E8F8D8F8D8D5D
:102680009E8D0197F1F79E8F8D8F8EE00E94830FB4
:1026900080E090E0A0E8BFE3898F9A8FAB8FBC8F7A
:1026A000698D7A8D8B8D9C8D20E030E04AEF54E46B
:1026B0000E941702DC01CB018D8B9E8BAF8BB88FF4
:1026C0006D897E898F89988D20E030E040E85FE356
:1026D0000E944D0488232CF481E090E09C8B8B8B2E
:1026E0003FC06D897E898F89988D20E03FEF4FE74D
:1026F00057E40E94ED0318164CF5698D7A8D8B8D89
:102700009C8D20E030E040E251E40E941702DC01A1
:10271000CB01BC01CD010E944100DC01CB019C8BAF
:102720008B8B0FC088EC90E09A8B898B89899A8972
:102730000197F1F79A8B898B8B899C8901979C8BE8
:102740008B8B8B899C89009769F714C06D897E8972
:102750008F89988D0E944100DC01CB019C8B8B8B73
:102760008B899C89988B8F878F8598890197F1F742
:10277000988B8F8781E00E94830F80E090E0A0E03B
:10278000B0E48B879C87AD87BE876B857C858D8504
:102790009E8520E030E04AEF54E40E941702DC01FD
:1027A000CB018F839887A987BA876F8178858985C0
:1027B0009A8520E030E040E85FE30E944D048823E2
:1027C0002CF481E090E09E838D833FC06F817885FB
:1027D00089859A8520E03FEF4FE757E40E94ED039B
:1027E00018164CF56B857C858D859E8520E030E044
:1027F00040E251E40E941702DC01CB01BC01CD0193
:102800000E944100DC01CB019E838D830FC088ECC8
:1028100090E09C838B838B819C810197F1F79C8353
:102820008B838D819E8101979E838D838D819E8177
:10283000009769F714C06F81788589859A850E9411
:102840004100DC01CB019E838D838D819E819A8323
:10285000898389819A810197F1F79A838983E89620
:102860000FB6F894DEBF0FBECDBFCF91DF910895B4
:10287000DF93CF9300D00F92CDB7DEB79B838A83CF
:1028800019820EC08981282F30E08A819B81FC014A
:10289000E20FF31F80810E94A31189818F5F8983DA
:1028A0008981282F30E08A819B81FC01E20FF31F90
:1028B0008081882339F70F900F900F90CF91DF918F
:1028C0000895DF93CF9300D000D0CDB7DEB78983D2
:1028D0006A838981282F30E03C832B838B819C8104
:1028E000009731F02B813C812130310531F009C056
:1028F0008A8180580E94830F04C08A8180540E947C
:10290000830F0F900F900F900F90CF91DF9108954C
:10291000DF93CF9300D000D0CDB7DEB78A837C831E
:102920006B838A81882F90E00896880F991F880F03
:10293000991F880F991F0E94830F19820EC08981E9
:10294000282F30E08B819C81FC01E20FF31F8081F6
:102950000E94A31189818F5F89838981883078F3F0
:102960000F900F900F900F90CF91DF910895DF930C
:10297000CF93CDB7DEB72E970FB6F894DEBF0FBE5C
:10298000CDBF81E00E94830F80E090E0A0E0B0E442
:102990008B879C87AD87BE876B857C858D859E8563
:1029A00020E030E04AEF54E40E941702DC01CB0142
:1029B0008F839887A987BA876F81788589859A855B
:1029C00020E030E040E85FE30E944D0488232CF4CF
:1029D00081E090E09E838D833FC06F8178858985FB
:1029E0009A8520E03FEF4FE757E40E94ED03181669
:1029F0004CF56B857C858D859E8520E030E040E23E
:102A000051E40E941702DC01CB01BC01CD010E9400
:102A10004100DC01CB019E838D830FC088EC90E0E8
:102A20009C838B838B819C810197F1F79C838B83A3
:102A30008D819E8101979E838D838D819E810097DC
:102A400069F714C06F81788589859A850E94410055
:102A5000DC01CB019E838D838D819E819A83898346
:102A600089819A810197F1F79A8389832E960FB60F
:102A7000F894DEBF0FBECDBFCF91DF910895EF92E6
:102A8000FF920F931F93DF93CF93CDB7DEB760977D
:102A90000FB6F894DEBF0FBECDBF1C8680E090E07D
:102AA000A0E0B0E088879987AA87BB8780E090E0A4
:102AB000A0E0B0E08C839D83AE83BF831B828FEF49
:102AC0008A8319820E94CC0D0E9441120E94E90D56
:102AD0008A838A818F3F09F469C18A818336A1F490
:102AE0000E94B71480E090E0A0E0B0E0888799876A
:102AF000AA87BB8780E090E0A0E0B0E08C839D8354
:102B0000AE83BF831C8652C18A818C3409F4A0C075
:102B10008A81833509F49CC08A81833409F498C082
:102B20008A81853609F494C08A81843509F490C07D
:102B30008A818D3309F48CC08C858130E1F18A81E2
:102B40008D32C9F18A818336B1F18A818B3299F154
:102B50008A818A3281F18A818F3269F1688579852B
:102B60008A859B8520E030E040E251E40E94170214
:102B7000DC01CB017C018D018A81882F90E0AA279E
:102B800097FDA095BA2FBC01CD010E947D049B0149
:102B9000AC01C801B7010E94EA01DC01CB018887C2
:102BA0009987AA87BB878A81882F90E00E9421108D
:102BB0008FEF8A83FBC08A818336C9F08A818D3288
:102BC00061F08A81833649F08A818B3231F08A81C3
:102BD0008A3219F08A818F3251F48A818B838B81FA
:102BE0000E94A3118FEF8A8381E08C87DFC08A81E6
:102BF0008D3309F4DBC06C817D818E819F8120E063
:102C000030E040E251E40E941702DC01CB017C017C
:102C10008D018A81882F90E0AA2797FDA095BA2F71
:102C2000BC01CD010E947D049B01AC01C801B7012C
:102C30000E94EA01DC01CB018C839D83AE83BF83BC
:102C40008A81882F90E00E9421108FEF8A83AEC086
:102C50008A818C3469F08A81833551F08A8183348A
:102C600039F08A81853621F08A81843509F093C054
:102C70008A81282F30E0388B2F878F85988983357C
:102C8000910501F12F853889243531055CF48F8554
:102C9000988983349105D9F02F8538892C343105F2
:102CA00061F023C08F85988984359105D1F02F85F7
:102CB00038892536310581F018C080E690E00E9401
:102CC000381413C084E690E00E9438140EC089E6E0
:102CD00090E00E94381409C08EE690E00E943814FB
:102CE00004C081E790E00E9438148A818B830E949F
:102CF000E90D8A838A818F3F09F43EC08A818D3233
:102D0000D9F18A818336C1F18A818B32A9F18A8116
:102D10008A3291F18A818F3279F18A818D3361F122
:102D2000688579858A859B8520E030E040E251E422
:102D30000E941702DC01CB017C018D018A81882F62
:102D400090E0AA2797FDA095BA2FBC01CD010E9463
:102D50007D049B01AC01C801B7010E94EA01DC01BE
:102D6000CB0188879987AA87BB878A81882F90E0C3
:102D70000E9421108FEF8A838A818D3309F0B7CFAB
:102D80008A81898389E20E94A31189810E94A3110B
:102D90008FEF8A830BC08A818D3341F48A818983C6
:102DA00089810E94A3118FEF8A831C8689818D33CC
:102DB00009F049C18B81282F30E03E872D878D8512
:102DC0009E858C34910509F4CCC02D853E852D342B
:102DD000310524F58D859E858D32910509F456C007
:102DE0002D853E852E32310564F48D859E858A328F
:102DF000910509F491C02D853E852B32310509F1ED
:102E000022C18D859E858F32910509F464C02D8580
:102E10003E852334310509F4D2C015C18D859E85C8
:102E20008435910509F4F9C02D853E852536310597
:102E300009F4DCC08D859E858335910509F4A8C011
:102E400002C1688579858A859B852C813D814E816B
:102E50005F810E94EA01DC01CB01BC01CD010E942F
:102E60004100DC01CB010E94211080E090E0A0E055
:102E7000B0E088879987AA87BB8780E090E0A0E0D0
:102E8000B0E08C839D83AE83BF83DDC06885798588
:102E90008A859B852C813D814E815F810E94B9018D
:102EA000DC01CB01BC01CD010E944100DC01CB0162
:102EB0000E94211080E090E0A0E0B0E08887998730
:102EC000AA87BB8780E090E0A0E0B0E08C839D8380
:102ED000AE83BF83B8C0688579858A859B852C8140
:102EE0003D814E815F810E941103DC01CB01BC0159
:102EF000CD010E948E1080E090E0A0E0B0E08887D5
:102F00009987AA87BB8780E090E0A0E0B0E08C833F
:102F10009D83AE83BF8397C0688579858A859B85AD
:102F20002C813D814E815F810E941702DC01CB0123
:102F3000BC01CD010E944100DC01CB010E942110A7
:102F400080E090E0A0E0B0E088879987AA87BB87FF
:102F500080E090E0A0E0B0E08C839D83AE83BF83EF
:102F600072C088859985AA85BB85BC01CD010E9468
:102F70001008DC01CB01BC01CD010E948E1080E065
:102F800090E0A0E0B0E088879987AA87BB875BC004
:102F900088859985AA85BB85BC01CD010E947509EC
:102FA000DC01CB01BC01CD010E948E1080E090E0DD
:102FB000A0E0B0E088879987AA87BB8744C088854E
:102FC0009985AA85BB85BC01CD010E94CC08DC0196
:102FD000CB01BC01CD010E948E1080E090E0A0E00A
:102FE000B0E088879987AA87BB872DC08885998597
:102FF000AA85BB85BC01CD010E949D07DC01CB01E8
:10300000BC01CD010E948E1080E090E0A0E0B0E015
:1030100088879987AA87BB8716C088859985AA85DE
:10302000BB85BC01CD010E941F0ADC01CB01BC01A4
:10303000CD010E948E1080E090E0A0E0B0E0888793
:103040009987AA87BB878FEF898340CDAA1BBB1BBB
:1030500051E107C0AA1FBB1FA617B70710F0A61B98
:10306000B70B881F991F5A95A9F780959095BC01B9
:10307000CD0108952F923F924F925F926F927F926F
:103080008F929F92AF92BF92CF92DF92EF92FF9278
:103090000F931F93CF93DF93CDB7DEB7CA1BDB0B24
:1030A0000FB6F894DEBF0FBECDBF09942A883988C9
:1030B00048885F846E847D848C849B84AA84B984D0
:1030C000C884DF80EE80FD800C811B81AA81B981DC
:1030D000CE0FD11D0FB6F894DEBF0FBECDBFED01F0
:0630E0000895F894FFCFF3
:1030E6006C6E280073696E2800636F73280065286C
:1030F6000074616E2800000000000000000000015E
:10310600020203030303040404040404040405057F
:103116000505050505050505050505050505060657
:103126000606060606060606060606060606060639
:103136000606060606060606060606060606070727
:103146000707070707070707070707070707070709
:1031560007070707070707070707070707070707F9
:1031660007070707070707070707070707070707E9
:1031760007070707070707070707070707070808D7
:1031860008080808080808080808080808080808B9
:1031960008080808080808080808080808080808A9
:1031A6000808080808080808080808080808080899
:1031B6000808080808080808080808080808080889
:1031C6000808080808080808080808080808080879
:1031D6000808080808080808080808080808080869
:1031E6000808080808080808080808080808080859
:1031F60008080808080808080808080808086307EF
:1032060008092A53650405062D43030102032B54BE
:103216002F002E3D2B4C000102030405060700017A
:00000001FF
