:100000000C942A000C9447000C9447000C94470071
:100010000C9447000C9447000C9447000C94470044
:100020000C9447000C9447000C94BD110C9477116C
:100030000C9447000C9447000C9447000C94470024
:100040000C9447000C9447000C9447000C94470014
:100050000C94470011241FBECFE5D8E0DEBFCDBF12
:1000600011E0A0E6B0E0EEEAF4E202C005900D92E5
:10007000A43BB107D9F711E0A4EBB1E001C01D9298
:10008000AC3BB107E1F70E94FF110C9455120C94A0
:100090000000EF92FF920F931F937B018C0120E0F1
:1000A00030E040E05FE40E94790388238CF0C801CF
:1000B000B70120E030E040E05FE40E94C1010E940F
:1000C000D9039B01AC01205030404040504806C04D
:1000D000C801B7010E94D9039B01AC01B901CA0153
:1000E0001F910F91FF90EF900895A0E0B0E0EBE733
:1000F000F0E00C941E12DC012B01FA019C9192306D
:1001000008F439C1EB018881823008F433C194309E
:1001100069F4843009F02FC111969C91119789815F
:10012000981709F428C1A0E6B0E025C1843009F48D
:1001300021C18230A9F4923009F01DC19A01AD01AC
:1001400088E0EA010990AE01E90109929E0181501F
:10015000C1F7E201898111969C918923818308C1AD
:10016000923009F407C112962D903C901397EB0141
:100170008A819B811496AD90BD90CD90DC901797AD
:10018000EC80FD800E811F819101281B390BB90184
:1001900037FF04C066277727621B730B6032710537
:1001A0000CF061C0121613066CF537014801062EDB
:1001B00004C096948794779467940A94D2F721E0C8
:1001C00030E040E050E004C0220F331F441F551FB1
:1001D0006A95D2F721503040404050402E213F21B7
:1001E00040235123211531054105510521F021E01E
:1001F00030E040E050E079018A01E628F72808293C
:1002000019293CC0232BD1F1260E371E350146019A
:10021000062E04C096948794779467940A94D2F734
:1002200021E030E040E050E004C0220F331F441FC3
:10023000551F6A95D2F721503040404050402A2146
:100240003B214C215D21211531054105510521F04E
:1002500021E030E040E050E059016A01A628B728CB
:10026000C828D9280BC0821593052CF01C01AA249C
:10027000BB24650103C0EE24FF24870111969C91E5
:10028000D20111968C91981709F445C0992339F041
:10029000A80197012A193B094C095D0906C0A6016E
:1002A00095012E193F09400B510B57FD08C01182D3
:1002B0003382228224833583468357831DC081E0A5
:1002C00081833382228288279927DC01821B930B4A
:1002D000A40BB50B84839583A683B7830DC0220F2F
:1002E000331F441F551F24833583468357838281E0
:1002F000938101979383828324813581468157813D
:10030000DA01C9010197A109B1098F5F9F4FAF4F72
:10031000BF4328F30BC0918333822282EA0CFB1C7B
:100320000C1D1D1DE482F5820683178383E0808304
:10033000248135814681578157FF1AC0C901AA27F8
:1003400097FDA095BA2F81709070A070B0705695EF
:10035000479537952795822B932BA42BB52B848318
:100360009583A683B7838281938101969383828349
:10037000DF0101C0D201CD01CDB7DEB7E2E10C94BF
:100380003A12A0E2B0E0E7ECF1E00C942A126983A3
:100390007A838B839C832D833E834F835887E9E048
:1003A000EE2EF12CEC0EFD1ECE010196B7010E943F
:1003B000CA058E010F5E1F4FCE010596B8010E943F
:1003C000CA058A8991E089278A8BC701B801AE01E5
:1003D000475E5F4F0E9475000E94F504A096E6E01C
:1003E0000C944612A0E2B0E0E8EFF1E00C942A127F
:1003F00069837A838B839C832D833E834F835887C5
:10040000F9E0EF2EF12CEC0EFD1ECE010196B701A6
:100410000E94CA058E010F5E1F4FCE010596B801DE
:100420000E94CA05C701B801AE01475E5F4F0E9436
:1004300075000E94F504A096E6E00C944612A0E236
:10044000B0E0E5E2F2E00C941E1269837A838B83BC
:100450009C832D833E834F835887CE010196BE0136
:10046000675F7F4F0E94CA05CE010596BE016F5E91
:100470007F4F0E94CA059985923088F08989823021
:10048000C8F0943019F4823051F404C0843029F457
:10049000923081F480E690E0C6C0923049F420E0CA
:1004A0009A858A89981321E02A87CE010996BBC0D4
:1004B000823049F420E09A858A89981321E02A8BBA
:1004C000CE014196B0C02D843E844F8458886D88FB
:1004D0007E888F88988CEE24FF248701AA24BB2471
:1004E000650140E050E060E070E0E0E0F0E0C10174
:1004F00081709070892BE9F0E60CF71C081D191D1E
:100500009A01AB012A0D3B1D4C1D5D1D80E090E062
:10051000A0E0B0E0E614F7040805190520F481E036
:1005200090E0A0E0B0E0BA01A901480F591F6A1F8E
:100530007B1FAA0CBB1CCC1CDD1C97FE08C081E0F5
:1005400090E0A0E0B0E0A82AB92ACA2ADB2A3196B6
:10055000E032F10549F0660C771C881C991C569412
:10056000479437942794C3CFFA85EA892B893C892D
:100570008B859C85280F391F2E5F3F4F17C0CA01FE
:1005800081709070892B61F016950795F794E79428
:1005900080E090E0A0E0B0E8E82AF92A0A2B1B2BC3
:1005A00076956795579547952F5F3F4F77FDE7CF36
:1005B0000CC0440F551F661F771F17FD4160EE0CDE
:1005C000FF1C001F111F21503040403090E05907A0
:1005D00090E0690790E4790760F32B8F3C8FDB0193
:1005E000CA018F779070A070B07080349105A1051A
:1005F000B10561F447FD0AC0E114F10401051105DC
:1006000029F0405C5F4F6F4F7F4F40781A8EFE1786
:1006100011F081E08A8F4D8F5E8F6F8F78A383E01A
:10062000898FCE0149960E94F504A096E2E10C94D0
:100630003A12A8E1B0E0EFE1F3E00C942A126983EA
:100640007A838B839C832D833E834F83588789E0F5
:10065000E82EF12CEC0EFD1ECE010196B7010E9492
:10066000CA058E010F5E1F4FCE010596B8010E948C
:10067000CA058985823040F08989823028F0C70117
:10068000B8010E94420601C081E06896E6E00C9441
:100690004612A8E1B0E0EFE4F3E00C942A1269837B
:1006A0007A838B839C832D833E834F83588789E095
:1006B000E82EF12CEC0EFD1ECE010196B7010E9432
:1006C000CA058E010F5E1F4FCE010596B8010E942C
:1006D000CA058985823040F08989823028F0C701B7
:1006E000B8010E94420601C08FEF6896E6E00C94C4
:1006F0004612A8E1B0E0EFE7F3E00C942A12698318
:100700007A838B839C832D833E834F83588789E034
:10071000E82EF12CEC0EFD1ECE010196B7010E94D1
:10072000CA058E010F5E1F4FCE010596B8010E94CB
:10073000CA058985823040F08989823028F0C70156
:10074000B8010E94420601C08FEF6896E6E00C9463
:100750004612A8E1B0E0EFEAF3E00C942A126983B4
:100760007A838B839C832D833E834F83588789E0D4
:10077000E82EF12CEC0EFD1ECE010196B7010E9471
:10078000CA058E010F5E1F4FCE010596B8010E946B
:10079000CA058985823040F08989823028F0C701F6
:1007A000B8010E94420601C081E06896E6E00C9420
:1007B0004612ACE0B0E0EFEDF3E00C942E1269834A
:1007C0007A838B839C83CE010196BE016B5F7F4F42
:1007D0000E94CA058D81823061F1823050F18430EF
:1007E00021F48E81882351F12EC02F81388537FD69
:1007F00020C06E812F3131051CF06623F9F023C033
:100800008EE190E0821B930B29853A854B855C85B0
:1008100004C056954795379527958A95D2F7662354
:10082000B1F050954095309521953F4F4F4F5F4F18
:100830000EC020E030E040E050E009C02FEF3FEF75
:100840004FEF5FE704C020E030E040E050E8B9013E
:10085000CA012C96E2E00C944A12A8E0B0E0E3E36F
:10086000F4E00C9426127B018C0161157105810561
:10087000910519F482E0898360C083E089838EE169
:10088000C82ED12CDC82CB82ED82FE820F831887AA
:10089000C801B7010E94A604FC013197F7FF3BC0D5
:1008A000222733272E1B3F0B57016801022E04C05D
:1008B000D694C794B794A7940A94D2F740E050E036
:1008C00060E070E081E090E0A0E0B0E004C0880F5C
:1008D000991FAA1FBB1F2A95D2F70197A109B10939
:1008E0008E219F21A023B1230097A105B10521F0FE
:1008F00041E050E060E070E04A295B296C297D29E5
:100900004D835E836F8378878EE190E08E1B9F0B13
:100910009C838B8312C0309781F00E2E04C0EE0CA6
:10092000FF1C001F111F0A94D2F7ED82FE820F8375
:100930001887CE1ADF0ADC82CB821A82CE0101969A
:100940000E94F5042896EAE00C944212EF92FF927E
:100950000F931F937B018C0180E0E81680E0F8067E
:1009600081E0080780E0180788F48FEFE816F104AB
:100970000105110531F028F088E090E0A0E0B0E03A
:1009800017C080E090E0A0E0B0E012C080E0E81680
:1009900080E0F80680E0080781E0180728F088E189
:1009A00090E0A0E0B0E004C080E190E0A0E0B0E022
:1009B00020E230E040E050E0281B390B4A0B5B0B93
:1009C00004C016950795F794E7948A95D2F7F70136
:1009D000E859FF4F8081281B310941095109C9019C
:1009E0001F910F91FF90EF900895DF92EF92FF9289
:1009F0000F931F93FC01E480F58006811781D1805D
:100A00008081823048F480E090E0A0E1B0E0E82A04
:100A1000F92A0A2B1B2BA5C0843009F49FC0823011
:100A200021F4EE24FF24870105C0E114F10401053F
:100A3000110519F4E0E0F0E096C0628173819FEF48
:100A4000623879070CF05BC022E83FEF261B370BBA
:100A50002A3131052CF020E030E040E050E02AC09F
:100A6000B801A701022E04C0769567955795479562
:100A70000A94D2F781E090E0A0E0B0E004C0880FD3
:100A8000991FAA1FBB1F2A95D2F70197A109B10987
:100A90008E219F21A023B1230097A105B10521F04C
:100AA00081E090E0A0E0B0E09A01AB01282B392B67
:100AB0004A2B5B2BDA01C9018F779070A070B07060
:100AC00080349105A105B10539F427FF09C0205CE8
:100AD0003F4F4F4F5F4F04C0215C3F4F4F4F5F4F21
:100AE000E0E0F0E02030A0E03A07A0E04A07A0E410
:100AF0005A0710F0E1E0F0E079018A0127C0603880
:100B0000710564F5FB01E158FF4FD801C7018F77EC
:100B10009070A070B07080349105A105B10539F4D2
:100B2000E7FE0DC080E490E0A0E0B0E004C08FE3F9
:100B300090E0A0E0B0E0E80EF91E0A1F1B1F17FFAF
:100B400005C016950795F794E794319687E01695BA
:100B50000795F794E7948A95D1F705C0EE24FF2412
:100B60008701EFEFF0E06E2F679566276795902F6E
:100B70009F77D794DD24D7948E2F8695492F462BC7
:100B8000582F5D29B701CA011F910F91FF90EF9077
:100B9000DF900895FC01DB01408151812281622FA9
:100BA0006F7770E0221F2227221F9381892F880FE1
:100BB000822B282F30E0991F9927991F11969C931B
:100BC000119721153105A9F54115510561057105EB
:100BD00011F482E037C082E89FEF13969C938E93C6
:100BE00012979A01AB0167E0220F331F441F551F74
:100BF0006A95D1F783E08C930DC0220F331F441FF9
:100C0000551F12968D919C911397019713969C9363
:100C10008E931297203080E0380780E0480780E408
:100C2000580758F314962D933D934D935C93179763
:100C300008952F3F310579F441155105610571057E
:100C400019F484E08C93089564FF03C081E08C93D1
:100C500012C01C9210C02F57304013963C932E9315
:100C6000129783E08C9387E0440F551F661F771F10
:100C70008A95D1F7706414964D935D936D937C9330
:100C8000179708951F93DC01FB019C91923008F4A3
:100C900047C08081823008F443C0943051F41196EB
:100CA0001C91843099F58181682F70E0611B710976
:100CB0003FC0843021F0923031F48230B9F181812B
:100CC000882389F12DC011961C9111978230F1F083
:100CD00081811817D9F412962D913C911397828136
:100CE00093818217930794F028173907BCF0149664
:100CF0008D919D910D90BC91A02D248135814681CF
:100D00005781281739074A075B0718F4112341F068
:100D10000AC082179307A407B50740F4112319F0FE
:100D200061E070E005C06FEF7FEF02C060E070E04F
:100D3000CB011F910895DF93CF93CDB7DEB72797EF
:100D40000FB6F894DEBF0FBECDBF89836A834B8395
:100D50008B81813009F06FC08981282F30E03F837B
:100D60002E838E819F818130910549F12E813F81B3
:100D7000223031052CF48E819F81009761F0D2C022
:100D80002E813F812230310571F18E819F81833028
:100D90009105E9F1C7C0AAE3B0E0EAE3F0E08081A1
:100DA000482F8A81282F30E081E090E0022E02C097
:100DB000880F991F0A94E2F7842B8C93B3C0A7E3A2
:100DC000B0E0E7E3F0E08081482F8A81282F30E00F
:100DD00081E090E0022E02C0880F991F0A94E2F78A
:100DE000842B8C939FC0A4E3B0E0E4E3F0E0808127
:100DF000482F8A81282F30E081E090E0022E02C047
:100E0000880F991F0A94E2F7842B8C938BC0A1E37F
:100E1000B0E0E1E3F0E08081482F8A81282F30E0C4
:100E200081E090E0022E02C0880F991F0A94E2F739
:100E3000842B8C9377C08B81882309F073C08981C0
:100E4000282F30E03D832C838C819D81813091055A
:100E500059F12C813D81223031052CF48C819D810A
:100E6000009769F05FC02C813D812230310589F106
:100E70008C819D818330910509F440C053C0AAE361
:100E8000B0E0EAE3F0E08081482F8A81282F30E04B
:100E900081E090E0022E02C0880F991F0A94E2F7C9
:100EA000809584238C933EC0A7E3B0E0E7E3F0E0B5
:100EB0008081482F8A81282F30E081E090E0022E47
:100EC00002C0880F991F0A94E2F7809584238C93BF
:100ED00029C0A4E3B0E0E4E3F0E08081482F8A81F8
:100EE000282F30E081E090E0022E02C0880F991F89
:100EF0000A94E2F7809584238C9314C0A1E3B0E0B8
:100F0000E1E3F0E08081482F8A81282F30E081E002
:100F100090E0022E02C0880F991F0A94E2F7809594
:100F200084238C9327960FB6F894DEBF0FBECDBFF7
:100F3000CF91DF910895DF93CF93CDB7DEB7279799
:100F40000FB6F894DEBF0FBECDBF89836A834B8393
:100F50008B81813009F06FC08981282F30E03F8379
:100F60002E838E819F818130910549F12E813F81B1
:100F7000223031052CF48E819F81009761F0D2C020
:100F80002E813F812230310571F18E819F81833026
:100F90009105E9F1C7C0ABE3B0E0EBE3F0E080819D
:100FA000482F8A81282F30E081E090E0022E02C095
:100FB000880F991F0A94E2F7842B8C93B3C0A8E39F
:100FC000B0E0E8E3F0E08081482F8A81282F30E00C
:100FD00081E090E0022E02C0880F991F0A94E2F788
:100FE000842B8C939FC0A5E3B0E0E5E3F0E0808123
:100FF000482F8A81282F30E081E090E0022E02C045
:10100000880F991F0A94E2F7842B8C938BC0A2E37C
:10101000B0E0E2E3F0E08081482F8A81282F30E0C1
:1010200081E090E0022E02C0880F991F0A94E2F737
:10103000842B8C9377C08B81882309F073C08981BE
:10104000282F30E03D832C838C819D818130910558
:1010500059F12C813D81223031052CF48C819D8108
:10106000009769F05FC02C813D812230310589F104
:101070008C819D818330910509F440C053C0ABE35E
:10108000B0E0EBE3F0E08081482F8A81282F30E048
:1010900081E090E0022E02C0880F991F0A94E2F7C7
:1010A000809584238C933EC0A8E3B0E0E8E3F0E0B1
:1010B0008081482F8A81282F30E081E090E0022E45
:1010C00002C0880F991F0A94E2F7809584238C93BD
:1010D00029C0A5E3B0E0E5E3F0E08081482F8A81F4
:1010E000282F30E081E090E0022E02C0880F991F87
:1010F0000A94E2F7809584238C9314C0A2E3B0E0B5
:10110000E2E3F0E08081482F8A81282F30E081E0FF
:1011100090E0022E02C0880F991F0A94E2F7809592
:1011200084238C9327960FB6F894DEBF0FBECDBFF5
:10113000CF91DF910895DF93CF9300D000D0CDB74A
:10114000DEB789836A838981282F30E03C832B8333
:101150008B819C8181309105D1F02B813C812230A3
:1011600031052CF48B819C81009761F01EC02B818E
:101170003C812230310581F08B819C818330910547
:1011800081F013C0EAE3F0E08A8180830EC0E7E3D8
:10119000F0E08A81808309C0E4E3F0E08A81808303
:1011A00004C0E1E3F0E08A8180830F900F900F90FC
:1011B0000F90CF91DF910895DF93CF9300D000D0AF
:1011C000CDB7DEB789836A838981282F30E03C83DD
:1011D0002B838B819C8181309105D1F02B813C81C7
:1011E000223031052CF48B819C81009761F01EC068
:1011F0002B813C812230310581F08B819C818330B1
:10120000910581F013C0EBE3F0E08A8180830EC08A
:10121000E8E3F0E08A81808309C0E5E3F0E08A81B9
:10122000808304C0E2E3F0E08A8180830F900F9016
:101230000F900F90CF91DF910895DF93CF9300D05F
:1012400000D00F92CDB7DEB78A836B838A81282FB7
:1012500030E03D832C834C815D814130510541F16B
:101260008C819D818230910534F42C813D81211542
:10127000310561F052C04C815D814230510551F120
:101280008C819D8183309105B9F147C0E9E3F0E09D
:101290008081282F30E08B81882F90E0A90102C047
:1012A000559547958A95E2F7CA018170898335C0C3
:1012B000E6E3F0E08081282F30E08B81882F90E0FA
:1012C000A90102C0559547958A95E2F7CA01817038
:1012D000898323C0E3E3F0E08081282F30E08B8115
:1012E000882F90E0A90102C0559547958A95E2F7AD
:1012F000CA018170898311C0E0E3F0E08081282F6A
:1013000030E08B81882F90E0A90102C05595479568
:101310008A95E2F7CA018170898389810F900F90C5
:101320000F900F900F90CF91DF910895DF93CF939F
:1013300000D000D0CDB7DEB789836A838981282F9A
:1013400030E03C832B838B819C818130910549F176
:101350002B813C81223031052CF48B819C810097BC
:1013600061F05AC02B813C812230310571F18B81B3
:101370009C8183309105E9F14FC0ABE3B0E0EBE332
:10138000F0E08081482F8A81282F30E081E090E0D2
:10139000022E02C0880F991F0A94E2F784278C93CB
:1013A0003BC0A8E3B0E0E8E3F0E08081482F8A8109
:1013B000282F30E081E090E0022E02C0880F991FB4
:1013C0000A94E2F784278C9327C0A5E3B0E0E5E315
:1013D000F0E08081482F8A81282F30E081E090E082
:1013E000022E02C0880F991F0A94E2F784278C937B
:1013F00013C0A2E3B0E0E2E3F0E08081482F8A81ED
:10140000282F30E081E090E0022E02C0880F991F63
:101410000A94E2F784278C930F900F900F900F900F
:10142000CF91DF910895DF93CF93CDB7DEB782E000
:101430006FE00E949B0882E06FEF0E94DC08CF9172
:10144000DF910895DF93CF93CDB7DEB763970FB6E3
:10145000F894DEBF0FBECDBF8FEF888B1F861B8A2F
:10146000CEC08B89882F90E0FC01EC58FE4F908114
:1014700082E0692F40E00E949B071A8AAAC08A89ED
:10148000882F90E0FC01E858FE4F908182E0692FA0
:101490000E941D09898B8989882309F097C080E003
:1014A00090E0A0EAB1E48B879C87AD87BE876B850F
:1014B0007C858D859E8520E030E04AEF54E40E94D3
:1014C0001F02DC01CB018F839887A987BA876F81C0
:1014D000788589859A8520E030E040E85FE30E94C6
:1014E000A90388232CF481E090E09E838D833FC084
:1014F0006F81788589859A8520E03FEF4FE757E433
:101500000E94490318164CF56B857C858D859E8558
:1015100020E030E040E251E40E941F02DC01CB01F8
:10152000BC01CD010E944900DC01CB019E838D836B
:101530000FC088EC90E09C838B838B819C8101970A
:10154000F1F79C838B838D819E8101979E838D8390
:101550008D819E81009769F721C06F81788589858B
:101560009A850E944900DC01CB019E838D838D8189
:101570009E819A83898389819A810197F1F79A8361
:1015800089830CC08A89882F90E0FC01E858FE4FBF
:10159000908182E0692F0E941D09898B89898823A7
:1015A00089F38B89282F30E08A89482F50E0C901C0
:1015B000880F991F820F931F840F951FFC01E85914
:1015C000FE4F8081888B81E08F8707C08A898F5F7B
:1015D0008A8B8A89833008F452CF8B89882F90E0D8
:1015E000FC01EC58FE4F908182E0692F41E00E949F
:1015F0009B078F85813039F08B898F5F8B8B8B892F
:10160000843008F42ECF888963960FB6F894DEBF35
:101610000FBECDBFCF91DF910895DF93CF93CDB7AC
:10162000DEB72F970FB6F894DEBF0FBECDBF8F8702
:1016300081E065E040E00E949B0781E066E040E0D9
:101640000E949B0780E06F850E94DC0881E067E0D4
:1016500041E00E949B0780E090E0A0E8BFE38B8719
:101660009C87AD87BE876B857C858D859E8520E0B8
:1016700030E04AEF54E40E941F02DC01CB018F836B
:101680009887A987BA876F81788589859A8520E0B0
:1016900030E040E85FE30E94A90388232CF481E056
:1016A00090E09E838D833FC06F81788589859A8580
:1016B00020E03FEF4FE757E40E94490318164CF52E
:1016C0006B857C858D859E8520E030E040E251E48D
:1016D0000E941F02DC01CB01BC01CD010E94490028
:1016E000DC01CB019E838D830FC088EC90E09C834E
:1016F0008B838B819C810197F1F79C838B838D81F8
:101700009E8101979E838D838D819E81009769F7CD
:1017100014C06F81788589859A850E944900DC0113
:10172000CB019E838D838D819E819A83898389815C
:101730009A810197F1F79A83898381E067E040E01D
:101740000E949B072F960FB6F894DEBF0FBECDBF49
:10175000CF91DF910895DF93CF93CDB7DEB729976F
:101760000FB6F894DEBF0FBECDBF998788871F8262
:101770001E821D821C82888599859B838A8319829B
:1017800028C0888599852AE030E0B9010E940A12B4
:101790009F838E838C819D819C01220F331FC90101
:1017A000880F991F880F991F280F391F8E819F81DD
:1017B000820F931F9D838C83888599852AE030E072
:1017C000B9010E940A12CB019987888789818F5FAE
:1017D0008983888599850097A1F617C08C819D81A2
:1017E0002AE030E0B9010E940A12805D0E942D0DAE
:1017F0008C819D812AE030E0B9010E940A12CB0160
:101800009D838C838981815089838981882331F7E5
:101810008A819B81009719F480E30E942D0D2996FF
:101820000FB6F894DEBF0FBECDBFCF91DF91089504
:10183000DF93CF93CDB7DEB762970FB6F894DEBFD4
:101840000FBECDBF6F87788B898B9A8B1E861D86C6
:101850001C861B866F85788989899A890E94490030
:10186000DC01CB019A87898789859A85CC01A0E024
:10187000B0E0BC01CD010E942D049B01AC016F853D
:10188000788989899A890E94C101DC01CB018D8305
:101890009E83AF83B8871C8283E08B836D817E81BA
:1018A0008F81988520E030E04AE754E40E941F02CF
:1018B000DC01CB01BC01CD010E944900DC01CB0160
:1018C0009A8389836F85788989899A8920E030E0B5
:1018D00040E85FE30E94A903882364F580E30E9447
:1018E0002D0D28C089859A852AE030E0B9010E9433
:1018F0000A129E878D878B859C859C01220F331F42
:10190000C901880F991F880F991F280F391F8D85CE
:101910009E85820F931F9C878B8789859A852AE0F5
:1019200030E0B9010E940A12CB019A8789878C8125
:101930008F5F8C8389859A850097A1F617C08B8568
:101940009C852AE030E0B9010E940A12805D0E9465
:101950002D0D8B859C852AE030E0B9010E940A128A
:10196000CB019C878B878C8181508C838C818823D1
:1019700031F78EE20E942D0D89819A81843691057E
:1019800020F480E30E942D0D31C089819A818A3034
:10199000910560F580E30E942D0D28C089819A8110
:1019A0002AE030E0B9010E940A129E878D878B855C
:1019B0009C859C01220F331FC901880F991F880F36
:1019C000991F280F391F8D859E85820F931F9C8735
:1019D0008B8789819A812AE030E0B9010E940A123E
:1019E000CB019A8389838C818F5F8C8389819A81D3
:1019F0000097A1F617C08B859C852AE030E0B901DD
:101A00000E940A12805D0E942D0D8B859C852AE024
:101A100030E0B9010E940A12CB019C878B878C8130
:101A200081508C838C81882331F76D817E818F81F9
:101A3000988520E030E040E050E00E9419038823C0
:101A400019F480E30E942D0D62960FB6F894DEBF64
:101A50000FBECDBFCF91DF910895DF93CF93CDB768
:101A6000DEB72F970FB6F894DEBF0FBECDBF8F87BE
:101A700081E065E041E00E949B0781E066E040E094
:101A80000E949B0780E06F850E94DC0881E067E090
:101A900041E00E949B0780E090E0A0E8BFE38B87D5
:101AA0009C87AD87BE876B857C858D859E8520E074
:101AB00030E04AEF54E40E941F02DC01CB018F8327
:101AC0009887A987BA876F81788589859A8520E06C
:101AD00030E040E85FE30E94A90388232CF481E012
:101AE00090E09E838D833FC06F81788589859A853C
:101AF00020E03FEF4FE757E40E94490318164CF5EA
:101B00006B857C858D859E8520E030E040E251E448
:101B10000E941F02DC01CB01BC01CD010E944900E3
:101B2000DC01CB019E838D830FC088EC90E09C8309
:101B30008B838B819C810197F1F79C838B838D81B3
:101B40009E8101979E838D838D819E81009769F789
:101B500014C06F81788589859A850E944900DC01CF
:101B6000CB019E838D838D819E819A838983898118
:101B70009A810197F1F79A83898381E067E040E0D9
:101B80000E949B072F960FB6F894DEBF0FBECDBF05
:101B9000CF91DF910895DF93CF93CDB7DEB7E8976C
:101BA0000FB6F894DEBF0FBECDBF80E06FEF0E948E
:101BB0009B0881E065E041E00E949B0681E066E0D1
:101BC00041E00E949B0681E067E041E00E949B06A5
:101BD00080E090E0ACE0B2E48DAB9EABAFABB8AFD1
:101BE0006DA97EA98FA998AD20E030E04AEF54E4BA
:101BF0000E941F02DC01CB0189AB9AABABABBCAB43
:101C000069A97AA98BA99CA920E030E040E85FE3AC
:101C10000E94A90388232CF481E090E098AB8FA761
:101C20003FC069A97AA98BA99CA920E03FEF4FE7A3
:101C300057E40E94490318164CF56DA97EA98FA997
:101C400098AD20E030E040E251E40E941F02DC0148
:101C5000CB01BC01CD010E944900DC01CB0198AB56
:101C60008FA70FC088EC90E09EA78DA78DA59EA59D
:101C70000197F1F79EA78DA78FA598A9019798AB1B
:101C80008FA78FA598A9009769F714C069A97AA9A9
:101C90008BA99CA90E944900DC01CB0198AB8FA7BE
:101CA0008FA598A99CA78BA78BA59CA50197F1F759
:101CB0009CA78BA78CE30E940D0B80E090E0A0E82E
:101CC000BFE38FA398A7A9A7BAA76FA178A589A5F5
:101CD0009AA520E030E04AEF54E40E941F02DC01A4
:101CE000CB018BA39CA3ADA3BEA36BA17CA18DA1B3
:101CF0009EA120E030E040E85FE30E94A903882332
:101D00002CF481E090E09AA389A33FC06BA17CA151
:101D10008DA19EA120E03FEF4FE757E40E944903C9
:101D200018164CF56FA178A589A59AA520E030E09A
:101D300040E251E40E941F02DC01CB01BC01CD0155
:101D40000E944900DC01CB019AA389A30FC088EC53
:101D500090E098A38F8F8F8D98A10197F1F798A3AA
:101D60008F8F89A19AA101979AA389A389A19AA18A
:101D7000009769F714C06BA17CA18DA19EA10E9460
:101D80004900DC01CB019AA389A389A19AA19E8F66
:101D90008D8F8D8D9E8D0197F1F79E8F8D8F8CE0AD
:101DA0000E940D0B80E090E0A0E8BFE3898F9A8F3E
:101DB000AB8FBC8F698D7A8D8B8D9C8D20E030E050
:101DC0004AEF54E40E941F02DC01CB018D8B9E8BF5
:101DD000AF8BB88F6D897E898F89988D20E030E038
:101DE00040E85FE30E94A90388232CF481E090E09F
:101DF0009C8B8B8B3FC06D897E898F89988D20E06D
:101E00003FEF4FE757E40E94490318164CF5698DE0
:101E10007A8D8B8D9C8D20E030E040E251E40E9471
:101E20001F02DC01CB01BC01CD010E944900DC0195
:101E3000CB019C8B8B8B0FC088EC90E09A8B898BAD
:101E400089899A890197F1F79A8B898B8B899C896B
:101E500001979C8B8B8B8B899C89009769F714C0A9
:101E60006D897E898F89988D0E944900DC01CB01A4
:101E70009C8B8B8B8B899C89988B8F878F8598897E
:101E80000197F1F7988B8F8781E00E940D0B80E01E
:101E900090E0A0E0B0E48B879C87AD87BE876B8520
:101EA0007C858D859E8520E030E04AEF54E40E94D9
:101EB0001F02DC01CB018F839887A987BA876F81C6
:101EC000788589859A8520E030E040E85FE30E94CC
:101ED000A90388232CF481E090E09E838D833FC08A
:101EE0006F81788589859A8520E03FEF4FE757E439
:101EF0000E94490318164CF56B857C858D859E855F
:101F000020E030E040E251E40E941F02DC01CB01FE
:101F1000BC01CD010E944900DC01CB019E838D8371
:101F20000FC088EC90E09C838B838B819C81019710
:101F3000F1F79C838B838D819E8101979E838D8396
:101F40008D819E81009769F714C06F81788589859E
:101F50009A850E944900DC01CB019E838D838D818F
:101F60009E819A83898389819A810197F1F79A8367
:101F70008983E8960FB6F894DEBF0FBECDBFCF9130
:101F8000DF910895DF93CF9300D00F92CDB7DEB7E6
:101F90009B838A8319820EC08981282F30E08A8131
:101FA0009B81FC01E20FF31F80810E942D0D89812E
:101FB0008F5F89838981282F30E08A819B81FC0192
:101FC000E20FF31F8081882339F70F900F900F9055
:101FD000CF91DF910895DF93CF9300D000D0CDB79C
:101FE000DEB789836A838981282F30E03C832B8385
:101FF0008B819C8181309105D1F02B813C812230F5
:1020000031052CF48B819C81009761F01EC02B81DF
:102010003C812330310581F08B819C818430910596
:1020200081F013C08A8180580E940D0B0EC08A81F6
:1020300080540E940D0B09C08A818C560E940D0BA2
:1020400004C08A818C520E940D0B0F900F900F904C
:102050000F90CF91DF910895DF93CF9300D000D000
:10206000CDB7DEB78A837C836B838A81882F90E02B
:102070000896880F991F880F991F880F991F0E9433
:102080000D0B19820EC08981282F30E08B819C8135
:10209000FC01E20FF31F80810E942D0D89818F5F6B
:1020A00089838981883078F30F900F900F900F907B
:1020B000CF91DF910895DF93CF93CDB7DEB72E9701
:1020C0000FB6F894DEBF0FBECDBF81E00E940D0BAE
:1020D00080E090E0A0E0B0E48B879C87AD87BE876E
:1020E0006B857C858D859E8520E030E04AEF54E449
:1020F0000E941F02DC01CB018F839887A987BA87D2
:102100006F81788589859A8520E030E040E85FE33B
:102110000E94A90388232CF481E090E09E838D83A4
:102120003FC06F81788589859A8520E03FEF4FE732
:1021300057E40E94490318164CF56B857C858D8504
:102140009E8520E030E040E251E40E941F02DC0165
:10215000CB01BC01CD010E944900DC01CB019E8373
:102160008D830FC088EC90E09C838B838B819C8156
:102170000197F1F79C838B838D819E8101979E83CC
:102180008D838D819E81009769F714C06F8178855A
:1021900089859A850E944900DC01CB019E838D834D
:1021A0008D819E819A83898389819A810197F1F734
:1021B0009A8389832E960FB6F894DEBF0FBECDBFEB
:1021C000CF91DF910895DF93CF930F92CDB7DEB714
:1021D000198214C02BE731E08981882F90E0880FA5
:1021E000991F880F991F880F991F280F391F898100
:1021F000B9010E942C1089818F5F89838981873082
:1022000048F319821DC08981843050F48981982F48
:102210009F5F83E0692F0E94EB0F89810E942D0D43
:102220008981843050F08981982F935084E0692F00
:102230000E94EB0F89810E942D0D89818F5F898318
:102240008981873000F30F90CF91DF910895DF935C
:10225000CF93CDB7DEB7A3E5B0E0E3E5F0E0808152
:102260008F7B8C93A3E5B0E0E3E5F0E080818860AC
:102270008C93A9E5B0E0E9E5F0E0808182608C9381
:10228000ECE5F0E08AEF8083A3E5B0E0E3E5F0E081
:1022900080818E7F8C93A3E5B0E0E3E5F0E0808160
:1022A00082608C93A3E5B0E0E3E5F0E080818B7F72
:1022B0008C93CF91DF910895DF93CF9300D00F924D
:1022C000CDB7DEB79A8389836B838B81882F90E0AB
:1022D000880F991FFC01E854FE4F89819A819183F0
:1022E00080830F900F900F90CF91DF9108951F92F0
:1022F0000F920FB60F9211242F933F934F935F933A
:102300006F937F938F939F93AF93BF93EF93FF93BD
:10231000DF93CF93CDB7DEB78091B4019091B50133
:1023200001969093B5018093B4018091B40190918E
:10233000B50123E08032920769F41092B501109242
:10234000B401E2E5F0E080EC8083E091B801F09127
:10235000B9010995CF91DF91FF91EF91BF91AF91B5
:102360009F918F917F916F915F914F913F912F91AD
:102370000F900FBE0F901F9018951F920F920FB6DF
:102380000F9211242F933F934F935F936F937F93FB
:102390008F939F93AF93BF93EF93FF93DF93CF936D
:1023A000CDB7DEB78091B6019091B70101969093B9
:1023B000B7018093B6018091B6019091B70123E0F7
:1023C0008032920749F41092B7011092B601E09161
:1023D000BA01F091BB010995CF91DF91FF91EF9187
:1023E000BF91AF919F918F917F916F915F914F912D
:1023F0003F912F910F900FBE0F901F901895DF9374
:10240000CF93CDB7DEB70E94CB0D0E94130A0E9476
:10241000E310FDCFAA1BBB1B51E107C0AA1FBB1FC6
:10242000A617B70710F0A61BB70B881F991F5A9560
:10243000A9F780959095BC01CD0108952F923F9208
:102440004F925F926F927F928F929F92AF92BF92C4
:10245000CF92DF92EF92FF920F931F93CF93DF9370
:10246000CDB7DEB7CA1BDB0B0FB6F894DEBF0FBECD
:10247000CDBF09942A88398848885F846E847D841A
:102480008C849B84AA84B984C884DF80EE80FD801C
:102490000C811B81AA81B981CE0FD11D0FB6F89492
:0E24A000DEBF0FBECDBFED010895F894FFCF53
:1024AE00000000000000000000010202030303030D
:1024BE0004040404040404040505050505050505C6
:1024CE0005050505050505050606060606060606A6
:1024DE00060606060606060606060606060606068E
:1024EE000606060606060606070707070707070776
:1024FE00070707070707070707070707070707075E
:10250E00070707070707070707070707070707074D
:10251E00070707070707070707070707070707073D
:10252E000707070707070707080808080808080825
:10253E00080808080808080808080808080808080D
:10254E0008080808080808080808080808080808FD
:10255E0008080808080808080808080808080808ED
:10256E0008080808080808080808080808080808DD
:10257E0008080808080808080808080808080808CD
:10258E0008080808080808080808080808080808BD
:10259E0008080808080808080808080808080808AD
:1025AE0008080808080808080708090405060102B3
:1025BE000363003D00010203040506000000001045
:1025CE0010181C00010101030F1F1F1F171F1F1CD6
:1025DE001F1C1C10181818001000001F1F0F0703D7
:1025EE000302031F1F1F1F160202031F19100000F4
:0425FE0000000000D9
:00000001FF
